:020000040800F2
:100000000018002071080008150800081B080008E7
:1000100000000000000000000000000000000000E0
:10002000000000000000000000000000210800089F
:1000300000000000000000002B0800083508000840
:10004000F108000800000000F1080008F1080008AD
:10005000F1080008F1080008F1080008F10800089C
:1000600000000000F1080008F1080008F10800088D
:10007000F1080008F1080008F1080008000000007D
:10008000F10800080000000000000000F10800086E
:1000900000000000F108000845080008F108000809
:1000A00000000000F108000800000000F10800084E
:1000B000F10800080000000000000000F10800083E
:1000C00010B5064C2378002B07D1054B002B02D02E
:1000D000044800E000BF0123237010BD0C00002085
:1000E0000000000078230008044B10B5002B03D05B
:1000F0000349044800E000BF10BDC04600000000F6
:100100001000002078230008002243088B4274D39B
:1001100003098B425FD3030A8B4244D3030B8B4208
:1001200028D3030C8B420DD3FF22090212BA030C11
:100130008B4202D31212090265D0030B8B4219D3F2
:1001400000E0090AC30B8B4201D3CB03C01A524112
:10015000830B8B4201D38B03C01A5241430B8B425A
:1001600001D34B03C01A5241030B8B4201D30B0343
:10017000C01A5241C30A8B4201D3CB02C01A52416A
:10018000830A8B4201D38B02C01A5241430A8B422D
:1001900001D34B02C01A5241030A8B4201D30B0216
:1001A000C01A5241CDD2C3098B4201D3CB01C01A30
:1001B000524183098B4201D38B01C01A524143093A
:1001C0008B4201D34B01C01A524103098B4201D328
:1001D0000B01C01A5241C3088B4201D3CB00C01A95
:1001E000524183088B4201D38B00C01A524143080D
:1001F0008B4201D34B00C01A5241411A00D2014632
:10020000524110467047FFE701B5002000F006F8A4
:1002100002BDC0460029F7D076E770477047C04658
:1002200080B500AF02F018F800F0B6F800F0BCF9A5
:1002300000F004F900F090F9534B180001F01CFE97
:10024000524B180000F096FC514B1B78012BFBD150
:100250004F4B00221A709023DB0501224021180029
:1002600001F048F9494B180000F084FC474B642129
:10027000180000F0D3FC454B180000F067FD0300A8
:100280009AB2444B1A80414B6421180000F0C6FC1E
:100290003E4B180000F05AFD03009AB23D4B5A80C5
:1002A0003A4B6421180000F0B9FC384B180000F0FC
:1002B0004DFD03009AB2374B9A80344B64211800ED
:1002C00000F0ACFC314B180000F040FD03009AB286
:1002D000304BDA802D4B6421180000F09FFC2B4B33
:1002E000180000F033FD03009AB22A4B1A819023C4
:1002F000DB0500224021180001F0FCF8234B180018
:1003000000F038FC214B6421180000F087FC1F4BE3
:10031000180000F01BFD03009AB21E4B1A801B4B05
:100320006421180000F07AFC184B180000F00EFD54
:1003300003009AB2174B5A80144B6421180000F046
:100340006DFC124B180000F001FD03009AB2114B36
:100350009A800E4B6421180000F060FC0B4B1800D3
:1003600000F0F4FC03009AB20A4BDA80074B6421D8
:10037000180000F053FC054B180000F0E7FC0300E8
:100380009AB2044B1A815FE7740000203400002009
:10039000320000202800002090B591B000AF10245A
:1003A0003B19180030231A00002101F0B9FF3B006F
:1003B000180010231A00002101F0B2FF21007B1861
:1003C00012221A607B180122DA607B1801225A611E
:1003D0007B1810221A617B1810229A617B18022266
:1003E0001A627B18802212025A627B188022520302
:1003F0009A627B180022DA627B18180001F098F8E4
:10040000031E01D000F06EF93B0007221A603B008A
:1004100002225A603B0000229A603B000022DA6010
:100420003B000121180001F0A1FB031E01D000F0E8
:1004300059F9C046BD4611B090BD000080B584B0EA
:1004400000AF3B1D18000C231A00002101F068FFCB
:100450003F4B404A1A603E4B00225A603C4B002200
:100460009A603B4B0022DA60394B01221A61384B0B
:1004700004225A61364B00221A76354B00225A76F6
:10048000334B00229A76324B0022DA76304BC2226E
:10049000FF32DA612E4B00221A622D4B24220021FA
:1004A00099542B4B01229A62294B180000F022FA32
:1004B000031E01D000F016F93B1D00221A603B1DFF
:1004C000802252015A603B1D05229A603A1D204B42
:1004D0001100180000F046FC031E01D000F002F9E4
:1004E0003B1D01221A603A1D194B1100180000F043
:1004F00039FC031E01D000F0F5F83B1D02221A6002
:100500003A1D134B1100180000F02CFC031E01D003
:1005100000F0E8F83B1D03221A603A1D0C4B110055
:10052000180000F01FFC031E01D000F0DBF83B1D9B
:1005300004221A603A1D064B1100180000F012FC4C
:10054000031E01D000F0CEF8C046BD4604B080BD09
:10055000340000200024014080B500AF0F4B104A4A
:100560001A600E4B2F225A600C4B00229A600B4BE4
:100570000C4ADA60094B00221A61084B00225A61CA
:10058000064B00229A61054B180001F025FC031E62
:1005900001D000F0A7F8C046BD4680BD7400002021
:1005A000004801400F27000090B589B000AF0C242F
:1005B0003B19180014231A00002101F0B1FE464B2C
:1005C0005A69454B8021C9030A435A61424B5A6913
:1005D0008023DB031340BB60BB683F4B5A693E4B33
:1005E000802189020A435A613B4B5A6980239B024E
:1005F00013407B607B68384B5A69374B8021C902B6
:100600000A435A61344B5A698023DB0213403B6032
:100610003B68324B00220121180000F06BFFDC2305
:10062000D9009023DB050022180000F063FF2C4B5B
:1006300000220221180000F05DFF3B1901221A6020
:100640003B1901225A603B1900229A603B19002293
:10065000DA603B19214A1900100000F0DBFD3B195C
:1006600002221A603B1900225A603B1900229A604C
:100670003B191A4A1900100000F0CCFD21007B182C
:10068000DC22D2001A600C003B1901225A603B198F
:1006900000229A603B190022DA603A199023DB05A8
:1006A0001100180000F0B6FD21007B1802221A602C
:1006B0007B1801225A607B1800229A607B18002266
:1006C000DA607B18064A1900100000F0A3FDC0464E
:1006D000BD4609B090BDC04600100240001400485D
:1006E0000004004880B500AF72B6C046FEE70000C7
:1006F00080B582B000AF0F4B9A690E4B01210A43BF
:100700009A610C4B9B69012213407B607B68094B0B
:10071000DA69084B802149050A43DA61054BDA6939
:1007200080235B0513403B603B68C046BD4602B07A
:1007300080BDC0460010024090B58BB000AF78601D
:1007400014243B19180014231A00002101F0E8FDBD
:100750007B681B68194A93422BD1194B9A69184B35
:10076000802189000A439A61154B9A6980239B0076
:1007700013403B613B69124B5A69114B802189023E
:100780000A435A610E4B5A6980239B021340FB6057
:10079000FB683B191F221A603B1903225A603B1960
:1007A00000229A603A199023DB051100180000F02E
:1007B00031FDC046BD460BB090BDC046002401408F
:1007C0000010024080B584B000AF78607B681B6881
:1007D0000E4A934215D10E4B9A690D4B8021C902E6
:1007E0000A439A610A4B9A698023DB021340FB603B
:1007F000FB6800220021162000F0DAFC162000F031
:10080000ECFCC046BD4604B080BDC0460048014077
:100810000010024080B500AFFEE780B500AFFEE7F4
:1008200080B500AFC046BD4680BD80B500AFC046B4
:10083000BD4680BD80B500AF01F056FDC046BD4647
:1008400080BD000080B500AF044B180001F05AFBDA
:10085000034B01221A70C046BD4680BD74000020C3
:100860003200002080B500AFC046BD4680BD00000C
:1008700013488546FFF7F6FF12480168090E124A31
:10088000914205D111481249016012481249016094
:1008900012481349134A002302E0D458C4500433C9
:1008A000C4188C42F9D3104A104C002301E01360A5
:1008B0000432A242FBD301F03BFDFFF7B1FCFEE79F
:1008C00000180020040000001F0000001810024063
:1008D00001000000000001400000000000000020B6
:1008E0000C000020C82300080C000020C0000020DD
:1008F000FEE7000080B584B000AF78600F23FB18DE
:1009000000221A700023BB607B68002B01D10123F9
:1009100025E17B689B6B002B0AD17B680022DA63A0
:100920007B683422002199547B681800FFF704FF8C
:100930007B689B6B1022134000D003E10F23FB1850
:100940001B78002B00D0FDE07B681B689B680422AD
:10095000134000D0F6E07B689B6B834A1340022271
:100960001A437B689A637B681B689B680322134069
:10097000012B12D17B681B681B6801221340012BDD
:1009800009D07B681B68DA6880231B021A40802329
:100990001B029A4201D1012300E00023002B16D153
:1009A0007B681B68DB681822934319007B689A6890
:1009B0007B681B680A43DA607B681B681B699B00C5
:1009C00099087B685A687B681B680A431A617B68D0
:1009D0001B68DA687B681B6864490A40DA607B68D8
:1009E0001B7E9A037B685B7EDB031A437B689B7EDE
:1009F0005B031A437B689B6A012B02D080235B0157
:100A000000E000231A437B68DB681A437B681B699C
:100A1000022B01D1042300E000231A437B68242128
:100A20005B5C5B001343BA681343BB607B68DB7E8F
:100A3000012B15D17B689B7E002B05D1BB688022E2
:100A400052021343BB600BE07B689B6B20221A436E
:100A50007B689A637B68DB6B01221A437B68DA63ED
:100A60007B68DA69C223FF339A4207D07B68DA6970
:100A70007B681B6A1343BA681343BB607B681B68BF
:100A8000D9687B681B68BA680A43DA607B68DA6AEF
:100A900080235B059A421BD07B68DB6A012B17D051
:100AA0007B68DB6A022B13D07B68DB6A032B0FD0D9
:100AB0007B68DB6A042B0BD07B68DB6A052B07D0D5
:100AC0007B68DB6A062B03D07B68DB6A072B12D1BD
:100AD0007B681B685A697B681B6807218A435A61D7
:100AE0007B681B6859697B68DB6A07221A407B6850
:100AF0001B680A435A617B681B68DB681C4A134009
:100B0000BA689A420BD17B680022DA637B689B6BE0
:100B10000322934301221A437B689A631CE07B689B
:100B20009B6B1222934310221A437B689A637B6863
:100B3000DB6B01221A437B68DA630F23FB18012267
:100B40001A7009E07B689B6B10221A437B689A63DA
:100B50000F23FB1801221A700F23FB181B781800B3
:100B6000BD4604B080BDC046FDFEFFFF1902FEFF7A
:100B7000E7FF3F8390B585B000AF78600F23FB1887
:100B800000221A707B681B689B680422134038D1CE
:100B90007B6834229B5C012B01D1022338E07B6807
:100BA0003422012199547B685B7E012B07D00F23EF
:100BB000FC187B68180000F0CBF9030023700F23AA
:100BC000FB181B78002B20D17B689B6B124A1340CB
:100BD000802252001A437B689A637B680022DA63A2
:100BE0007B683422002199547B681B681C221A60A0
:100BF0007B681B689A687B681B6804210A439A60BB
:100C000003E00F23FB1802221A700F23FB181B7836
:100C10001800BD4605B090BDFEF0FFFF80B584B062
:100C200000AF786039607B685B69082B02D10823CC
:100C3000FB6014E07B681B68DB6801221340012B1A
:100C40000BD17B689B6B20221A437B689A637B687D
:100C5000342200219954012371E00C23FB6001F040
:100C600055FB0300BB601FE03B6801331CD03B68B1
:100C7000002B07D001F04AFB0200BB68D31A3A6888
:100C80009A4211D27B681B681B68FA6813400BD12B
:100C90007B689B6B04221A437B689A637B683422CF
:100CA0000021995403234AE07B681B681B68FA689B
:100CB0001340D9D07B689B6B802292001A437B68DB
:100CC0009A637B681B68DA68C0231B0113402DD12F
:100CD0007B689B7E002B29D17B681B681B680822E0
:100CE0001340082B22D17B681B689B6804221340A9
:100CF00010D17B681B685A687B681B680C218A438B
:100D00005A607B689B6B104A134001221A437B6830
:100D10009A630BE07B689B6B20221A437B689A6383
:100D20007B68DB6B01221A437B68DA637B681B7E7E
:100D3000002B03D17B681B680C221A60002318006B
:100D4000BD4604B080BDC046FEFEFFFF80B582B048
:100D500000AF78607B681B681B6C1800BD4602B052
:100D600080BD000080B584B000AF786039600F238B
:100D7000FB1800221A700023BB607B68DA6A8023AC
:100D80005B059A4211D07B68DB6A012B0DD07B6832
:100D9000DB6A022B09D07B68DB6A032B05D07B68FA
:100DA000DB6A042B01D07B68DB6A7B6834229B5CA6
:100DB000012B01D10223BBE07B683422012199542D
:100DC0007B681B689B680422134000D09FE03B684F
:100DD0005B68594A934200D177E07B681B68996A47
:100DE0003B681B6801229A407B681B680A439A6231
:100DF0007B68DA6A80235B059A4237D07B68DB6ABE
:100E0000012B33D07B68DB6A022B2FD07B68DB6A37
:100E1000032B2BD07B68DB6A042B27D07B68DB6A33
:100E2000052B23D07B68DB6A062B1FD07B68DB6A2F
:100E3000072B1BD03B689A687B681B685B6907219E
:100E40000B409A4212D07B681B685A697B681B680A
:100E500007218A435A617B681B6859693B689B6814
:100E600007221A407B681B680A435A613B681B686B
:100E7000102B03D03B681B68112B52D12F4B1968E4
:100E80003B681B68102B02D180231B0401E08023E8
:100E9000DB032A4A0B4313603B681B68102B40D1CD
:100EA000274B1B6827491800FFF72EF903001A008B
:100EB00013009B009B185B00BB6002E0BB68013B1A
:100EC000BB60BB68002BF9D12BE07B681B689A6A7A
:100ED0003B681B68012199400B00D9437B681B6864
:100EE0000A409A623B681B68102B03D03B681B6862
:100EF000112B16D1114B19683B681B68102B01D1BF
:100F0000114A00E0114A0D4B0A401A6009E07B6863
:100F10009B6B20221A437B689A630F23FB180122E4
:100F20001A707B683422002199540F23FB181B7818
:100F30001800BD4604B080BD011000000827014024
:100F40000000002040420F00FFFF7FFFFFFFBFFFB8
:100F500080B584B000AF78600023FB600023BB60E5
:100F60007B681B689B6803221340012B12D17B68AE
:100F70001B681B6801221340012B09D07B681B688A
:100F8000DA6880231B021A4080231B029A4201D197
:100F9000012300E00023002B52D17B681B689B6873
:100FA0002A4A13400DD07B689B6B10221A437B6842
:100FB0009A637B68DB6B01221A437B68DA63012347
:100FC0003FE07B681B689A687B681B6801210A43C5
:100FD0009A601F4B1B681F491800FFF795F8030024
:100FE000BB6002E0BB68013BBB60BB68002BF9D172
:100FF00001F08CF90300FB601BE001F087F90200AF
:10100000FB68D31A022B14D97B681B681B6801226A
:101010001340012B0DD07B689B6B10221A437B6819
:101020009A637B68DB6B01221A437B68DA630123D6
:1010300007E07B681B681B6801221340012BDCD191
:1010400000231800BD4604B080BDC04617000080D4
:101050000000002040420F0080B582B000AF0200C7
:10106000FB1D1A70FB1D1B787F2B09D8FB1D1B78FD
:101070001A001F231A40044B012191400A001A60F4
:10108000C046BD4602B080BD00E100E090B583B02F
:1010900000AF02003960FB1D1A70FB1D1B787F2B0F
:1010A00028D82F4AFB1D1B785BB29B08C0339B00DE
:1010B0009B58FA1D1278110003220A40D200FF212A
:1010C00091400A00D2431A4011003B689B01FF2265
:1010D0001A40FB1D1B78180003230340DB009A40D5
:1010E0001F48FB1D1B785BB29B080A43C0339B0063
:1010F0001A5031E01B4AFB1D1B7819000F230B40CF
:10110000083B9B0806339B00D31804331B68FA1D69
:101110001278110003220A40D200FF2191400A00F8
:10112000D2431A4011003B689B01FF221A40FB1D6D
:101130001B78180003230340DB009A400948FB1D7D
:101140001B781C000F232340083B9B080A430633EF
:101150009B00C31804331A60C046BD4603B090BD5F
:1011600000E100E000ED00E080B582B000AF786003
:101170007B685A1E80235B049A4201D3012310E04E
:101180000A4B7A68013A5A6001235B420321180036
:10119000FFF77CFF054B00229A60044B07221A6080
:1011A00000231800BD4602B080BDC04610E000E03C
:1011B00080B584B000AFB9607A600F217B18021C43
:1011C0001A70BA687B181B785BB211001800FFF721
:1011D0005DFFC046BD4604B080BD80B582B000AFA3
:1011E0000200FB1D1A70FB1D1B785BB21800FFF795
:1011F00033FFC046BD4602B080BD80B582B000AFAF
:1012000078607B681800FFF7AFFF03001800BD4649
:1012100002B080BD80B586B000AF78603960002331
:101220007B614FE13B681B6801217A6991400A00AC
:101230001340FB60FB68002B00D140E13B685B681A
:1012400003221340012B05D03B685B680322134047
:10125000022B30D17B689B683B617B695B0003227A
:101260009A401300DA433B6913403B613B68DA68FC
:101270007B695B009A4013003A6913433B617B68CA
:101280003A699A607B685B683B6101227B699A409E
:101290001300DA433B6913403B613B685B681B0901
:1012A00001221A407B699A4013003A6913433B615B
:1012B0007B683A695A603B685B6803221340032BE2
:1012C00017D07B68DB683B617B695B0003229A4037
:1012D0001300DA433B6913403B613B689A687B69C2
:1012E0005B009A4013003A6913433B617B683A699B
:1012F000DA603B685B6803221340022B23D17B69D1
:10130000DA087B6808329200D3583B617B69072278
:1013100013409B000F229A401300DA433B691340AD
:101320003B613B681A697B6907210B409B009A402F
:1013300013003A6913433B617B69DA087B68083222
:1013400092003969D1507B681B683B617B695B0007
:1013500003229A401300DA433B6913403B613B6828
:101360005B6803221A407B695B009A4013003A696C
:1013700013433B617B683A691A603B685A68C02333
:101380009B02134000D19AE0544B9A69534B0121C0
:101390000A439A61514B9B6901221340BB60BB68B1
:1013A0004F4A7B699B0802339B009B583B617B69DA
:1013B000032213409B000F229A401300DA433B693B
:1013C00013403B617A689023DB059A4213D07B6817
:1013D000444A93420DD07B68434A934207D07B68CE
:1013E000424A934201D1032306E0052304E002238D
:1013F00002E0012300E000237A6903210A40920001
:1014000093403A6913433B6135497B699B0802333A
:101410009B003A695A50364B9B683B61FB68DA4344
:101420003B6913403B613B685A6880235B03134070
:1014300003D03A69FB6813433B612D4B3A699A60CC
:101440002B4BDB683B61FB68DA433B6913403B6134
:101450003B685A6880239B03134003D03A69FB68BA
:1014600013433B61224B3A69DA60214B5B683B6175
:10147000FB68DA433B6913403B613B685A68802351
:101480009B02134003D03A69FB6813433B61184B3E
:101490003A695A60164B1B683B61FB68DA433B694B
:1014A00013403B613B685A6880235B02134003D0C2
:1014B0003A69FB6813433B610D4B3A691A607B69DB
:1014C00001337B613B681A687B69DA40131E00D0E8
:1014D000A8E6C046C046BD4606B080BD001002402A
:1014E000000001400004004800080048000C0048CB
:1014F0000004014080B582B000AF786008001100A0
:10150000BB1C021C1A807B1C0A1C1A707B1C1B78DB
:10151000002B04D0BB1C1A887B689A6103E0BB1CBB
:101520001A887B689A62C046BD4602B080BD000042
:1015300080B588B000AF78607B68002B01D10123B3
:1015400005E37B681B680122134000D18DE0C54B89
:101550005B680C221340042B0ED0C24B5B680C223C
:101560001340082B16D1BF4B5A68C0235B021A40A8
:1015700080235B029A420DD1BA4B1A6880239B02EA
:10158000134000D170E07B685B68002B00D06BE0FB
:101590000123DCE27B685B68012B07D1B14B1A6841
:1015A000B04B802149020A431A602FE07B685B68D8
:1015B000002B0CD1AB4B1A68AA4BAB490A401A60FE
:1015C000A84B1A68A74BA9490A401A601EE07B681D
:1015D0005B68052B0ED1A34B1A68A24B8021C90270
:1015E0000A431A609F4B1A689E4B802149020A43A6
:1015F0001A600BE09B4B1A689A4B9B490A401A6091
:10160000984B1A68974B99490A401A607B685B6847
:10161000002B14D000F07AFE0300BB6108E000F05C
:1016200075FE0200BB69D31A642B01D903238EE235
:101630008C4B1A6880239B021340F0D015E000F019
:1016400065FE0300BB6108E000F060FE0200BB69BC
:10165000D31A642B01D9032379E2824B1A688023C1
:101660009B021340F0D100E0C0467B681B68022259
:10167000134000D16CE07B4B5B680C2213400ED012
:10168000784B5B680C221340082B1FD1754B5A68AE
:10169000C0235B021A4080231B029A4216D1714B71
:1016A0001B680222134005D07B68DB68012B01D048
:1016B00001234CE26B4B1B68F822934319007B68B3
:1016C0001B69DA00674B0A431A6041E07B68DB68FC
:1016D000002B24D0634B1A68624B01210A431A6025
:1016E00000F014FE0300BB6108E000F00FFE0200F2
:1016F000BB69D31A022B01D9032328E2594B1B687B
:1017000002221340F1D0574B1B68F8229343190073
:101710007B681B69DA00534B0A431A6018E0514B8F
:101720001A68504B01218A431A6000F0EFFD030054
:10173000BB6108E000F0EAFD0200BB69D31A022B8E
:1017400001D9032303E2474B1B6802221340F1D166
:101750007B681B680822134036D07B68DB69002B4E
:1017600019D0404B5A6A3F4B01210A435A6200F09C
:10177000CDFD0300BB6108E000F0C8FD0200BB69BD
:10178000D31A022B01D90323E1E1364B5B6A022213
:101790001340F1D018E0334B5A6A324B01218A438F
:1017A0005A6200F0B3FD0300BB6108E000F0AEFD3B
:1017B0000200BB69D31A022B01D90323C7E1294BCD
:1017C0005B6A02221340F1D17B681B68042213403C
:1017D00000D1B5E01F203B1800221A70214BDA69B6
:1017E00080235B05134010D11E4BDA691D4B80210D
:1017F00049050A43DA611B4BDA6980235B05134014
:10180000FB60FB683B1801221A70194B1A68802391
:101810005B0013401AD1164B1A68154B8021490002
:101820000A431A6000F072FD0300BB6108E000F09B
:101830006DFD0200BB69D31A642B01D9032386E135
:101840000B4B1A6880235B001340F0D07B689B68C9
:10185000012B0FD1034B1A6A024B01210A431A6272
:1018600036E0C04600100240FFFFFEFFFFFFFBFF17
:10187000007000407B689B68002B0CD1B64B1A6A45
:10188000B54B01218A431A62B34B1A6AB24B042149
:101890008A431A621CE07B689B68052B0CD1AE4B17
:1018A0001A6AAD4B04210A431A62AB4B1A6AAA4B5F
:1018B00001210A431A620BE0A74B1A6AA64B0121C9
:1018C0008A431A62A44B1A6AA34B04218A431A6200
:1018D0007B689B68002B14D000F018FD0300BB61EF
:1018E00009E000F013FD0200BB69D31A9B4A934242
:1018F00001D903232BE1984B1B6A02221340F0D03D
:1019000013E000F003FD0300BB6109E000F0FEFC02
:101910000200BB69D31A914A934201D9032316E10D
:101920008D4B1B6A02221340F0D11F23FB181B783A
:10193000012B05D1884BDA69874B89490A40DA6166
:101940007B681B681022134063D07B685B69012BA6
:101950002AD1814B5A6B804B04210A435A637E4B38
:101960005A6B7D4B01210A435A6300F0CFFC030000
:10197000BB6108E000F0CAFC0200BB69D31A022B6D
:1019800001D90323E3E0744B5B6B02221340F1D0D7
:10199000714B5B6BF822934319007B689B69DA00FB
:1019A0006D4B0A435A6334E07B685B69053311D1A0
:1019B000694B5A6B684B04218A435A63664B5B6BD5
:1019C000F822934319007B689B69DA00624B0A4353
:1019D0005A631EE0604B5A6B5F4B04210A435A6303
:1019E0005D4B5A6B5C4B01218A435A6300F08EFCBD
:1019F0000300BB6108E000F089FC0200BB69D31A58
:101A0000022B01D90323A2E0534B5B6B022213404C
:101A1000F1D17B681B6A002B00D197E04E4B5B68CD
:101A20000C221340082B00D16BE07B681B6A022B51
:101A30004CD1494B1A68484B4A490A401A6000F099
:101A400065FC0300BB6108E000F060FC0200BB69BC
:101A5000D31A022B01D9032379E03F4B1A68802364
:101A60009B041340F0D13C4BDB6A0F2293431900D7
:101A70007B68DA6A384B0A43DA62374B5B683A4A6A
:101A8000134019007B689A6A7B685B6A1A43324B81
:101A90000A435A60304B1A682F4B802149040A438D
:101AA0001A6000F033FC0300BB6108E000F02EFC7C
:101AB0000200BB69D31A022B01D9032347E0264B4E
:101AC0001A6880239B041340F0D03FE0224B1A6831
:101AD000214B24490A401A6000F018FC0300BB6146
:101AE00008E000F013FC0200BB69D31A022B01D9F5
:101AF00003232CE0184B1A6880239B041340F0D179
:101B000024E07B681B6A012B01D101231FE0124BEB
:101B10005B687B61104BDB6A3B617A69C0235B02C7
:101B20001A407B685B6A9A420ED13B690F221A40C9
:101B30007B68DB6A9A4207D17A69F0239B031A40DB
:101B40007B689B6A9A4201D0012300E000231800C1
:101B5000BD4608B080BDC04600100240881300009A
:101B6000FFFFFFEFFFFFFFFEFF7FC2FF80B584B0E6
:101B700000AF786039607B68002B01D10123B3E0AE
:101B80005B4B1B68012213403A689A4211D9584BAB
:101B90001B68012293431900554B3A680A431A60A7
:101BA000534B1B68012213403A689A4201D001232B
:101BB0009AE07B681B680222134015D07B681B6883
:101BC0000422134006D04B4B5A684A4BE021C9000F
:101BD0000A435A60474B5B68F022934319007B68C5
:101BE0009A68444B0A435A607B681B680122134081
:101BF00040D07B685B68012B07D13E4B1A6880237D
:101C00009B02134014D101236EE07B685B68022BBA
:101C100007D1384B1A6880239B04134008D1012355
:101C200062E0344B1B680222134001D101235BE0C8
:101C3000304B5B680322934319007B685A682D4B35
:101C40000A435A6000F062FB0300FB6009E000F009
:101C50005DFB0200FB68D31A274A934201D9032394
:101C600042E0244B5B680C221A407B685B689B0057
:101C70009A42ECD11E4B1B68012213403A689A42EB
:101C800011D21B4B1B68012293431900184B3A6871
:101C90000A431A60164B1B68012213403A689A42A5
:101CA00001D0012320E07B681B680422134009D087
:101CB000104B5B68114A134019007B68DA680D4BC2
:101CC0000A435A6000F020F801000A4B5B681B09C8
:101CD0000F2213400A4AD35C0A00DA40094B1A600B
:101CE000032000F0CDFA00231800BD4604B080BDEB
:101CF000002002400010024088130000FFF8FFFFA0
:101D0000902300080000002080B586B000AF0023BB
:101D1000FB600023BB6000237B6100237B6000230A
:101D20003B61214B5B68FB60FB680C221340042B7A
:101D300002D0082B03D02EE01C4B3B612EE0FB6849
:101D40009B0C0F2213401A4AD35C7B60164BDB6A54
:101D50000F221340174AD35CBB60FA68C0235B02B2
:101D60001A4080235B029A4209D1B9680F48FEF7F6
:101D7000CBF903001A007B6853437B6108E0B96824
:101D80000A48FEF7C1F903001A007B6853437B61E0
:101D90007B693B6102E0054B3B61C0463B69180033
:101DA000BD4606B080BDC0460010024000127A0059
:101DB000A0230008B023000880B582B000AF78608F
:101DC000C046BD4602B080BD80B582B000AF78602D
:101DD000C046BD4602B080BD80B582B000AF78601D
:101DE0007B68002B01D1012342E07B683D229B5C94
:101DF000DBB2002B07D17B683C22002199547B6821
:101E00001800FEF7DFFC7B683D22022199547B68B5
:101E10001A687B6804331900100000F0B1F97B6880
:101E20004622012199547B683E22012199547B6806
:101E30003F22012199547B684022012199547B68FB
:101E40004122012199547B684222012199547B68E7
:101E50004322012199547B684422012199547B68D3
:101E60004522012199547B683D2201219954002388
:101E70001800BD4602B080BD80B584B000AF786068
:101E80007B683D229B5CDBB2012B01D0012330E05B
:101E90007B683D22022199547B681B68DA687B6865
:101EA0001B6801210A43DA607B681B68134A93426E
:101EB00004D07B681B68124A934211D17B681B686F
:101EC0009B6807221340FB60FB68062B10D07B68E1
:101ED0001B681A687B681B6801210A431A6007E0C7
:101EE0007B681B681A687B681B6801210A431A60BB
:101EF00000231800BD4604B080BDC046002C014040
:101F00000004004080B582B000AF78607B681B6839
:101F10001B6902221340022B24D17B681B68DB68FB
:101F200002221340022B1DD17B681B680322524200
:101F30001A617B6801221A777B681B689B69032200
:101F4000134004D07B68180000F002F907E07B68BA
:101F5000180000F0F5F87B68180000F001F97B68C4
:101F600000221A777B681B681B6904221340042B2C
:101F700025D17B681B68DB6804221340042B1ED12B
:101F80007B681B68052252421A617B6802221A771D
:101F90007B681B689A69C0239B00134004D07B6850
:101FA000180000F0D5F807E07B68180000F0C8F8CA
:101FB0007B68180000F0D4F87B6800221A777B68F1
:101FC0001B681B6908221340082B24D17B681B68FF
:101FD000DB6808221340082B1DD17B681B6809228F
:101FE00052421A617B6804221A777B681B68DB699E
:101FF0000322134004D07B68180000F0A9F807E022
:102000007B68180000F09CF87B68180000F0A8F8C6
:102010007B6800221A777B681B681B6910221340BB
:10202000102B25D17B681B68DB6810221340102B16
:102030001ED17B681B68112252421A617B680822FC
:102040001A777B681B68DA69C0239B00134004D0B1
:102050007B68180000F07CF807E07B68180000F04F
:102060006FF87B68180000F07BF87B6800221A7715
:102070007B681B681B6901221340012B0FD17B6811
:102080001B68DB6801221340012B08D17B681B68A9
:10209000022252421A617B68180000F049F87B68FE
:1020A0001B681B6980221340802B0FD17B681B6843
:1020B000DB6880221340802B08D17B681B6881225B
:1020C00052421A617B681800FFF77EFE7B681B682E
:1020D0001B6940221340402B0FD17B681B68DB68D3
:1020E00040221340402B08D17B681B68412252429A
:1020F0001A617B68180000F03BF87B681B681B695D
:1021000020221340202B0FD17B681B68DB68202224
:102110001340202B08D17B681B68212252421A6190
:102120007B681800FFF748FEC046BD4602B080BD80
:1021300080B582B000AF7860C046BD4602B080BDB9
:1021400080B582B000AF7860C046BD4602B080BDA9
:1021500080B582B000AF7860C046BD4602B080BD99
:1021600080B582B000AF7860C046BD4602B080BD89
:1021700080B582B000AF7860C046BD4602B080BD79
:1021800080B584B000AF786039607B681B68FB6005
:102190007B682B4A934203D07B682A4A934208D13A
:1021A000FB6870229343FB603B685B68FA681343EB
:1021B000FB607B68224A93420FD07B68214A93429E
:1021C0000BD07B68204A934207D07B681F4A93421A
:1021D00003D07B681E4A934208D1FB681D4A134016
:1021E000FB603B68DB68FA681343FB60FB68802296
:1021F00093431A003B685B691343FB607B68FA6892
:102200001A603B689A687B68DA623B681A687B6888
:102210009A627B680A4A934207D07B680B4A9342D2
:1022200003D07B680A4A934203D13B681A697B68F2
:102230001A637B6801225A61C046BD4604B080BD66
:10224000002C0140000400400020004000440140F8
:1022500000480140FFFCFFFF80B500AF074B1A6844
:10226000064B10210A431A60032000F009F8FEF71C
:102270003FFA00231800BD4680BDC0460020024042
:1022800090B583B000AF7860144B1C68144B1B787A
:102290001900FA239800FDF737FF0300190020000A
:1022A000FDF732FF03001800FEF7A7FF031E01D061
:1022B00001230FE07B68032B0BD8796801235B4275
:1022C00000221800FEF774FF064B7A681A6000239C
:1022D00000E001231800BD4603B090BD00000020BF
:1022E000080000200400002080B500AF054B1B78DB
:1022F0001A00054B1B68D218034B1A60C046BD4636
:1023000080BDC04608000020BC00002080B500AFA2
:10231000024B1B681800BD4680BDC046BC000020B3
:1023200003008218934200D1704719700133F9E716
:1023300070B500260C4C0D4D641BA410A64209D1AB
:10234000002600F019F80A4C0A4D641BA410A6429E
:1023500005D170BDB300EB5898470136EEE7B300E6
:10236000EB5898470136F2E7C0230008C023000865
:10237000C4230008C0230008F8B5C046F8BC08BC58
:102380009E467047F8B5C046F8BC08BC9E467047EC
:102390000000000000000000010203040607080915
:1023A00002030405060708090A0B0C0D0E0F101096
:1023B0000102030405060708090A0B0C0D0E0F1095
:0423C000E900000828
:0423C400C10000084C
:0C23C80000127A00040000000100000078
:040000050800087176
:00000001FF
